{
  "contractName": "Document_Search",
  "abi": [
    {
      "constant": true,
      "inputs": [
        {
          "internalType": "uint256",
          "name": "",
          "type": "uint256"
        }
      ],
      "name": "users",
      "outputs": [
        {
          "internalType": "string",
          "name": "username",
          "type": "string"
        },
        {
          "internalType": "string",
          "name": "password",
          "type": "string"
        }
      ],
      "payable": false,
      "stateMutability": "view",
      "type": "function"
    },
    {
      "constant": false,
      "inputs": [
        {
          "internalType": "string",
          "name": "username",
          "type": "string"
        },
        {
          "internalType": "string",
          "name": "password",
          "type": "string"
        }
      ],
      "name": "Register",
      "outputs": [],
      "payable": false,
      "stateMutability": "nonpayable",
      "type": "function"
    },
    {
      "constant": false,
      "inputs": [
        {
          "internalType": "string",
          "name": "username",
          "type": "string"
        },
        {
          "internalType": "string",
          "name": "password",
          "type": "string"
        },
        {
          "internalType": "string",
          "name": "doc_name",
          "type": "string"
        },
        {
          "internalType": "string",
          "name": "Key",
          "type": "string"
        },
        {
          "internalType": "string",
          "name": "Salt",
          "type": "string"
        },
        {
          "internalType": "uint256",
          "name": "Size",
          "type": "uint256"
        },
        {
          "internalType": "int256[]",
          "name": "input",
          "type": "int256[]"
        }
      ],
      "name": "Insert",
      "outputs": [],
      "payable": false,
      "stateMutability": "nonpayable",
      "type": "function"
    },
    {
      "constant": true,
      "inputs": [
        {
          "internalType": "string",
          "name": "username",
          "type": "string"
        },
        {
          "internalType": "string",
          "name": "doc_name",
          "type": "string"
        },
        {
          "internalType": "uint256[]",
          "name": "input",
          "type": "uint256[]"
        }
      ],
      "name": "Search_Keyword",
      "outputs": [
        {
          "internalType": "int256",
          "name": "",
          "type": "int256"
        },
        {
          "internalType": "string",
          "name": "",
          "type": "string"
        }
      ],
      "payable": false,
      "stateMutability": "view",
      "type": "function"
    }
  ],
  "bytecode": "0x608060405234801561001057600080fd5b506110f4806100206000396000f3fe608060405234801561001057600080fd5b506004361061004c5760003560e01c8063365b98b21461005157806388bbebf71461007b578063b464dc601461009c578063d6192e29146100b1575b600080fd5b61006461005f366004610ca9565b6100c4565b604051610072929190610f59565b60405180910390f35b61008e610089366004610af3565b61020f565b604051610072929190610f39565b6100af6100aa366004610b84565b610477565b005b6100af6100bf366004610a8c565b610649565b600081815481106100d157fe5b60009182526020918290206002918202018054604080516001831615610100026000190190921693909304601f8101859004850282018501909352828152909350918391908301828280156101675780601f1061013c57610100808354040283529160200191610167565b820191906000526020600020905b81548152906001019060200180831161014a57829003601f168201915b505050505090806001018054600181600116156101000203166002900480601f0160208091040260200160405190810160405280929190818152602001828054600181600116156101000203166002900480156102055780601f106101da57610100808354040283529160200191610205565b820191906000526020600020905b8154815290600101906020018083116101e857829003601f168201915b5050505050905082565b60006060600061021e866106f9565b90506001866040516102309190610f1a565b90815260200160405180910390208560405161024c9190610f1a565b908152604051908190036020019020541561044e5760405160009081908190600190610279908b90610f1a565b9081526020016040518091039020886040516102959190610f1a565b90815260405190819003602001902060030154905060005b87518110156103405760018a6040516102c69190610f1a565b9081526020016040518091039020896040516102e29190610f1a565b90815260200160405180910390206004018289838151811061030057fe5b60200260200101518161030f57fe5b068154811061031a57fe5b906000526020600020015460011415610334576001909301925b600192830192016102ad565b50600082846064028161034f57fe5b059050604b811261042f578060018b60405161036b9190610f1a565b90815260200160405180910390208a6040516103879190610f1a565b908152604080516020928190038301812060029081018054600181161561010002600019011691909104601f8101859004850283018501909352828252929091839183018282801561041a5780601f106103ef5761010080835404028352916020019161041a565b820191906000526020600020905b8154815290600101906020018083116103fd57829003601f168201915b5050505050905096509650505050505061046f565b806040518060200160405280600081525096509650505050505061046f565b60405162461bcd60e51b815260040161046690610fbe565b60405180910390fd5b935093915050565b6000610482886106f9565b9050866040516020016104959190610f1a565b60405160208183030381529060405280519060200120600082815481106104b857fe5b90600052602060002090600202016001016040516020016104d99190610f2d565b604051602081830303815290604052805190602001201415610627576001886040516105059190610f1a565b9081526020016040518091039020866040516105219190610f1a565b9081526040519081900360200190205461060a5761053d610839565b600180825260208201879052604080830187905260608301869052608083018590525182919061056e908c90610f1a565b90815260200160405180910390208860405161058a9190610f1a565b90815260200160405180910390206000820151816000015560208201518160010190805190602001906105be929190610868565b50604082015180516105da916002840191602090910190610868565b5060608201516003820155608082015180516106009160048401916020909101906108e6565b5090505050610622565b60405162461bcd60e51b815260040161046690610f7e565b61063f565b60405162461bcd60e51b815260040161046690610f8e565b5050505050505050565b6000610654836107a5565b9050806106dc5760408051808201909152838152602080820184905260008054600181018083559180528351805192949360029092027f290decd9548b62a8d60345a988386fc84ba6bc95484008f6362f93160ef3e56301926106ba9284920190610868565b5060208281015180516106d39260018501920190610868565b505050506106f4565b60405162461bcd60e51b815260040161046690610fae565b505050565b6000805b60005481101561078757826040516020016107189190610f1a565b604051602081830303815290604052805190602001206000828154811061073b57fe5b906000526020600020906002020160000160405160200161075c9190610f2d565b60405160208183030381529060405280519060200120141561077f5790506107a0565b6001016106fd565b5060405162461bcd60e51b815260040161046690610f9e565b919050565b600080805b60005481101561083257836040516020016107c59190610f1a565b60405160208183030381529060405280519060200120600082815481106107e857fe5b90600052602060002090600202016000016040516020016108099190610f2d565b60405160208183030381529060405280519060200120141561082a57600191505b6001016107aa565b5092915050565b6040518060a0016040528060008152602001606081526020016060815260200160008152602001606081525090565b828054600181600116156101000203166002900490600052602060002090601f016020900481019282601f106108a957805160ff19168380011785556108d6565b828001600101855582156108d6579182015b828111156108d65782518255916020019190600101906108bb565b506108e2929150610920565b5090565b8280548282559060005260206000209081019282156108d657916020028201828111156108d65782518255916020019190600101906108bb565b61093a91905b808211156108e25760008155600101610926565b90565b600082601f83011261094e57600080fd5b813561096161095c82610ff4565b610fce565b9150818183526020840193506020810190508385602084028201111561098657600080fd5b60005b838110156109b2578161099c8882610a2c565b8452506020928301929190910190600101610989565b5050505092915050565b600082601f8301126109cd57600080fd5b81356109db61095c82610ff4565b91508181835260208401935060208101905083856020840282011115610a0057600080fd5b60005b838110156109b25781610a168882610a2c565b8452506020928301929190910190600101610a03565b8035610a378161109a565b92915050565b600082601f830112610a4e57600080fd5b8135610a5c61095c82611014565b91508082526020830160208301858383011115610a7857600080fd5b610a83838284611054565b50505092915050565b60008060408385031215610a9f57600080fd5b82356001600160401b03811115610ab557600080fd5b610ac185828601610a3d565b92505060208301356001600160401b03811115610add57600080fd5b610ae985828601610a3d565b9150509250929050565b600080600060608486031215610b0857600080fd5b83356001600160401b03811115610b1e57600080fd5b610b2a86828701610a3d565b93505060208401356001600160401b03811115610b4657600080fd5b610b5286828701610a3d565b92505060408401356001600160401b03811115610b6e57600080fd5b610b7a868287016109bc565b9150509250925092565b600080600080600080600060e0888a031215610b9f57600080fd5b87356001600160401b03811115610bb557600080fd5b610bc18a828b01610a3d565b97505060208801356001600160401b03811115610bdd57600080fd5b610be98a828b01610a3d565b96505060408801356001600160401b03811115610c0557600080fd5b610c118a828b01610a3d565b95505060608801356001600160401b03811115610c2d57600080fd5b610c398a828b01610a3d565b94505060808801356001600160401b03811115610c5557600080fd5b610c618a828b01610a3d565b93505060a0610c728a828b01610a2c565b92505060c08801356001600160401b03811115610c8e57600080fd5b610c9a8a828b0161093d565b91505092959891949750929550565b600060208284031215610cbb57600080fd5b6000610cc78484610a2c565b949350505050565b610cd88161093a565b82525050565b6000610ce982611047565b610cf3818561104b565b9350610d03818560208601611060565b610d0c81611090565b9093019392505050565b6000610d2182611047565b610d2b81856107a0565b9350610d3b818560208601611060565b9290920192915050565b600081546001811660008114610d625760018114610d8557610dc4565b607f6002830416610d7381876107a0565b60ff1984168152955085019250610dc4565b60028204610d9381876107a0565b9550610d9e8561103b565b60005b82811015610dbd57815488820152600190910190602001610da1565b5050850192505b505092915050565b6000610dd9602f8361104b565b7f54686520646f63756d656e74206e616d6520666f7220757365726e616d65206181526e0363932b0b23c9032bc34b9ba39909608d1b602082015260400192915050565b6000610e2a601e8361104b565b7f2057726f6e672050617373776f726420666f7220757365726e616d6520210000815260200192915050565b6000610e63601e8361104b565b7f5468697320757365726e616d6520646f6573206e6f7420657869737420210000815260200192915050565b6000610e9c601d8361104b565b7f54686520757365726e616d6520616c7265616479206578697374732120000000815260200192915050565b6000610ed560308361104b565b7f54686520446f63756d656e74206e616d6520666f7220757365726e616d65206481526f037b2b9903737ba1032bc34b9ba3990960851b602082015260400192915050565b6000610f268284610d16565b9392505050565b6000610f268284610d45565b60408101610f478285610ccf565b8181036020830152610cc78184610cde565b60408082528101610f6a8185610cde565b90508181036020830152610cc78184610cde565b60208082528101610a3781610dcc565b60208082528101610a3781610e1d565b60208082528101610a3781610e56565b60208082528101610a3781610e8f565b60208082528101610a3781610ec8565b6040518181016001600160401b0381118282101715610fec57600080fd5b604052919050565b60006001600160401b0382111561100a57600080fd5b5060209081020190565b60006001600160401b0382111561102a57600080fd5b506020601f91909101601f19160190565b60009081526020902090565b5190565b90815260200190565b82818337506000910152565b60005b8381101561107b578181015183820152602001611063565b8381111561108a576000848401525b50505050565b601f01601f191690565b6110a38161093a565b81146110ae57600080fd5b5056fea365627a7a72315820d8dbf78ce173c9f4d3bec1d6098374ddb3cddea87531222465c3a1c89c954fb96c6578706572696d656e74616cf564736f6c63430005100040",
  "source": " pragma solidity ^0.5.0;\r\n     pragma experimental ABIEncoderV2;\r\ncontract Document_Search{\r\n    \r\n     struct user{\r\n        string username;\r\n        string password;\r\n        \r\n    }\r\n        user[] public users;\r\n       mapping(string => mapping(string => Index_details)) details;\r\n       \r\n    struct Index_details{\r\n     uint flag;\r\n     string key;\r\n     string salt;\r\n     uint size;\r\n\r\n   //  mapping(string=>string)Index;\r\n     int[] Bloom;\r\n    }\r\n    \r\n    function Register(string memory username,string memory password) public{\r\n           uint i=findd_id(username);\r\n           if(i==0){\r\n               users.push(user(username,password));\r\n           }\r\n           else{\r\n               revert('The username already exists! ');\r\n           }\r\n                  \r\n    }\r\n    \r\n    function Insert(string memory username,string memory password,string memory doc_name,string memory Key,string memory Salt,uint Size,int [] memory input) public{\r\n        uint i=find_id(username);\r\n         if(keccak256(abi.encodePacked(users[i].password))== keccak256(abi.encodePacked(password)))\r\n         {\r\n          if(details[username][doc_name].flag==0){\r\n \r\n              Index_details memory p;\r\n              p.flag=1;\r\n              p.key=Key;\r\n              p.salt=Salt;\r\n              p.size=Size;\r\n            /*  string memory k;\r\n              string memory v;\r\n               for(uint i=0;i<input.length;i+=2){\r\n                   k=input[i];\r\n                   v=input[i+1];\r\n                   p.Index[k]=v;\r\n            } */\r\n            p.Bloom=input;\r\n              details[username][doc_name]=p;\r\n          }   \r\n          else{\r\n               revert('The document name for username already exists! ');\r\n          }\r\n         }\r\n         else{\r\n             revert(' Wrong Password for username !');\r\n         }\r\n         \r\n    }\r\n    \r\n    function Search_Keyword(string memory username, string memory doc_name,uint [] memory input)view public returns(int,string memory){\r\n         uint i=find_id(username);\r\n          if(details[username][doc_name].flag!=0){\r\n              int numerator=0;\r\n              int denominator=0;\r\n              //create trigrams and loop\r\n          /*  int h1= hash1(keyword,details[username][doc_name].size);\r\n            int h2=hash2(keyword,details[username][doc_name].size);\r\n            int h3=hash3(keyword,details[username][doc_name].size);\r\n            numerator+=details[username][doc_name].Bloom[h1]+details[username][doc_name].Bloom[h2] +details[username][doc_name].Bloom[h3];\r\n            denominator+=3;\r\n             */\r\n             uint l=details[username][doc_name].size;\r\n             for(uint j=0;j<input.length;j++)\r\n             {\r\n                 if(details[username][doc_name].Bloom[input[j]%l]==1)\r\n                 {\r\n                     numerator++;\r\n                 }\r\n                 denominator++;\r\n             }\r\n            int val=(100*numerator)/denominator;\r\n            if(val>=75)\r\n              return (val,details[username][doc_name].salt);\r\n            else\r\n              return (val,\"\");\r\n          }   \r\n          else{\r\n               revert('The Document name for username does not exists! ');\r\n          }\r\n         \r\n    }\r\n    \r\n    \r\n     function find_id(string memory username)view internal returns(uint){\r\n            for(uint i=0;i<users.length;i++){\r\n                if(keccak256(abi.encodePacked(users[i].username))== keccak256(abi.encodePacked(username)))\r\n                {\r\n                    return i;\r\n                }\r\n            }\r\n            revert('This username does not exist !');\r\n        }\r\n        \r\n  \r\n    \r\n    function findd_id(string memory username)view internal returns(uint){\r\n             uint k=0;\r\n            for(uint i=0;i<users.length;i++){\r\n                if(keccak256(abi.encodePacked(users[i].username))== keccak256(abi.encodePacked(username)))\r\n                {\r\n                     k=1;\r\n                }\r\n            }\r\n            return k;\r\n           \r\n        }\r\n\r\n\r\n    \r\n    \r\n    \r\n    \r\n    \r\n    \r\n    \r\n}",
  "sourcePath": "C:/Users/Robins Singh/Desktop/btp/sem 8/Document_Search/Public_daap/contracts/Document_Search.sol",
  "compiler": {
    "name": "solc",
    "version": "0.5.16+commit.9c3226ce.Emscripten.clang"
  },
  "schemaVersion": "3.2.3",
  "updatedAt": "2021-12-01T18:09:09.418Z",
  "networkType": "ethereum",
  "devdoc": {
    "methods": {}
  },
  "userdoc": {
    "methods": {}
  }
}